S0190000454C454354524943414C204845415445522E737265635A
S11300000C942A000C9447000C9447000C9447006D
S11300100C9447000C9447000C9447000C94470040
S11300200C9447000C9447000C945E040C94470015
S11300300C9447000C9447000C9447000C94470020
S11300400C9447000C9447000C9447000C94470010
S11300500C94470011241FBECFE5D8E0DEBFCDBF0E
S113006010E0A0E6B0E0E2E4FAE002C005900D92F0
S1130070AC36B107D9F720E0ACE6B0E001C01D9280
S1130080A338B207E1F70E94C3010C941F050C9436
S1130090000041E063E081E00E947903089540E0BC
S11300A063E081E00E947903089541E064E081E027
S11300B00E947903089540E064E081E00E9479039E
S11300C0089540E065E081E00E947903089541E0ED
S11300D063E081E00E94060341E064E081E00E9465
S11300E0060341E065E081E00E94060340E060E031
S11300F081E00E94060340E061E081E00E94060383
S113010040E062E081E00E94060341E060E081E0BB
S11301100E94790341E061E081E00E94790341E0BB
S113012062E081E00E9479030E944F000E945B001C
S11301300E946100089540916C0081E0482740933B
S11301406C0065E00E9479030895682F81E00E94A5
S1130150EC0308950E94870408951F93CF93DF93BF
S1130160182FD62F9370C92FC0650E9493048C2F2B
S11301700E94A204812F0E94B8048D2F0E94B8040B
S11301800E949F04DF91CF911F910895CF93DF9335
S1130190D82F9370C92FC0650E9493048C2F0E949E
S11301A0A2048D2F0E94B8040E9499048C2F0E94EF
S11301B0AD040E94BF04C82F0E949F048C2FDF91BE
S11301C0CF9108950E94E002089580E00E94F60213
S11301D09C01A8E8B3E10E94FC0420E038E240E07E
S11301E050E00E94DA04822F08956FEF83E00E94AA
S11301F01E0441E066E082E00E94060341E067E0FD
S113020082E00E9406030895CF93DF93843608F0BA
S113021083E6EDEC8E9FE12D1124CE2FC695C69575
S1130220C6952C2F220F922F990F990F920FD82F2A
S1130230D91B41E067E082E00E947903EC2FF0E0F3
S1130240EF59FF4F608183E00E942E0440E066E096
S113025082E00E9479038FE99FE00197F1F700C0E3
S1130260000041E066E082E00E947903ED2FF0E0B7
S1130270EF59FF4F608183E00E942E0440E067E065
S113028082E00E9479038FE99FE00197F1F700C0B3
S11302900000DF91CF91089540E066E082E00E9483
S11302A0790340E067E082E00E94790360E083E044
S11302B00E942E040895809180008823D9F18091B2
S11302C06F008F5F80936F008A3028F010926F0068
S11302D081E080937F0080916D0090916E00019683
S11302E090936E0080936D008436910518F11092FE
S11302F06E0010926D0090917E0081E089278093BA
S11303007E0080918000823029F480917D008F5F8F
S113031080937D0080918000813061F42091700091
S113032030E08091600090E005972817390714F4B5
S11303300E949B0008952091710030E0F901EE586D
S1130340FF4F8083C90101966AE070E00E94C604F1
S11303508093710080E020E030E008C0E82FF0E0F6
S1130360EE58FF4F9081290F311D8F5F8A30B0F313
S1130370ADECBCEC0E94FC04969587959695879508
S11303809695879508950E94E0020E9467000E9456
S1130390F5000E94E2000E94AA0080E090E00E9422
S11303A0C6009DED980F993278F49DEC899F912DAC
S11303B0112496959695292F220F220F920F8913B7
S11303C003C08093600008C08CE3809360006CE3FA
S11303D080E090E00E94AD008BE591E00E9457041C
S11303E00E9442040E943E04EE24E394FF24F3940A
S11303F001E003C00C2FFD2EE12E80E00E94A50039
S1130400C82F81E00E94A500D82F82E00E94A50099
S1130410182F80917F00882371F0809180008823B9
S113042051F010927F000E94E50080937C000E94AE
S11304309B018093700001112FC0C13069F58FE5D5
S11304409AEE0197F1F700C0000080E00E94A50039
S1130450813011F580918000811114C081E0809376
S113046080000E94E50080937C0090E006C0E92FA4
S1130470F0E0EE58FF4F80839F5F9A30C0F3809383
S113048070000AC0109280000E944F000E945B001E
S11304900E9461000E944C0180918000813071F0C3
S11304A020F0823009F440C0A5CF0E944C010E9484
S11304B04F000E945B000E9461009CCF80917000FD
S11304C00E94040191E0F91202C0DD2329F081E0C9
S11304D0E81207C0111105C082E0809380001092D9
S11304E07D002091700030E08091600090E0AC01CC
S11304F045505109241735072CF40E9449000E94E5
S11305005B0078CF0596821793073CF40E944F0056
S11305100E9455000E9461006DCF0E944F000E940E
S11305205B000E94610066CF80917E00882329F0E1
S1130530809160000E94040102C00E944C0191E07D
S1130540F91216C0D11114C08FE59AEE0197F1F794
S113055000C0000081E00E94A500811109C08091C3
S113056060008B3418F48B5F8093600010927D00E0
S113057091E0E91216C0111114C08FE59AEE0197AB
S1130580F1F700C0000082E00E94A500811109C0BB
S113059080916000843218F085508093600010923E
S11305A07D0080917D00853008F424CF6091600047
S11305B080E090E00E94AD0081E0809380001ACF3B
S11305C087B1806487B987B18F7787B987B18F7D09
S11305D087B986B1816086B986B1826086B986B1F1
S11305E0846086B986B1806886B9089597B1907E93
S11305F08770892B87B986B1806486B9349BFECF16
S113060086B1806186B984B195B10895683008F0E7
S11306106FC04130A1F5813089F028F08230C9F0F3
S1130620833011F108952AB381E090E002C0880F6D
S1130630991F6A95E2F7822B8ABB089527B381E05C
S113064090E002C0880F991F6A95E2F7822B87BB5E
S1130650089524B381E090E002C0880F991F6A9541
S1130660E2F7822B84BB089521B381E090E002C0BD
S1130670880F991F6A95E2F7822B81BB0895411177
S113068037C0813091F028F08230D9F0833029F1DD
S113069008952AB381E090E002C0880F991F6A95FB
S11306A0E2F7809582238ABB089527B381E090E026
S11306B002C0880F991F6A95E2F78095822387BB51
S11306C0089524B381E090E002C0880F991F6A95D1
S11306D0E2F78095822384BB089521B381E090E002
S11306E002C0880F991F6A95E2F78095822381BB27
S11306F00895683008F06FC04130A1F5813089F069
S113070028F08230C9F0833011F108952BB381E0D1
S113071090E002C0880F991F6A95E2F7822B8BBB89
S1130720089528B381E090E002C0880F991F6A956C
S1130730E2F7822B88BB089525B381E090E002C0E4
S1130740880F991F6A95E2F7822B85BB089522B31F
S113075081E090E002C0880F991F6A95E2F7822B2E
S113076082BB0895411137C0813091F028F0823066
S1130770D9F0833029F108952BB381E090E002C0D1
S1130780880F991F6A95E2F7809582238BBB0895A1
S113079028B381E090E002C0880F991F6A95E2F7C0
S11307A08095822388BB089525B381E090E002C040
S11307B0880F991F6A95E2F78095822385BB089577
S11307C022B381E090E002C0880F991F6A95E2F796
S11307D08095822382BB0895683060F5813079F07A
S11307E028F08230A9F08330E1F026C089B390E08C
S11307F002C0959587956A95E2F78170089586B34E
S113080090E002C0959587956A95E2F78170089506
S113081083B390E002C0959587956A95E2F781705D
S1130820089580B390E002C0959587956A95E2F7A4
S11308308170089580E0089580E00895813041F04A
S113084028F0823039F0833039F008956ABB089576
S113085067BB089564BB089561BB0895813041F07E
S113086028F0823039F0833039F008956BBB089555
S113087068BB089565BB089562BB08958FB780680F
S11308808FBF089583B7886083BF83B78F7B83BF8F
S11308908EE48CBF89B7826089BF83B7816083BFD0
S11308A083B78D7F83BF83B7846083BF0895009728
S11308B021F0909382008093810008951F920F92FB
S11308C00FB60F9211242F933F934F935F936F931F
S11308D07F938F939F93AF93BF93EF93FF93E09195
S11308E08100F0918200309709F00995FF91EF9112
S11308F0BF91AF919F918F917F916F915F914F9134
S11309003F912F910F900FBE0F901F90189580E28A
S113091080B981B18E7F81B981B18D7F81B986B76C
S1130920846086BF089584EA86BF06B607FEFDCFBD
S1130930089584EA86BF06B607FEFDCF089584E9CC
S113094086BF0895880F83B983B18E7F83B984E805
S113095086BF06B607FEFDCF0895880F83B983B11D
S1130960816083B984E886BF06B607FEFDCF08958B
S113097083B984E886BF06B607FEFDCF089584E8F0
S113098086BF06B607FEFDCF83B1089597FB072EF9
S113099016F4009407D077FD09D00E940B0507FCDC
S11309A005D03EF4909581959F4F0895709561957B
S11309B07F4F0895A1E21A2EAA1BBB1BFD010DC097
S11309C0AA1FBB1FEE1FFF1FA217B307E407F507FB
S11309D020F0A21BB30BE40BF50B661F771F881FD7
S11309E0991F1A9469F760957095809590959B016D
S11309F0AC01BD01CF010895A29FB001B39FC00116
S1130A00A39F700D811D1124911DB29F700D811D36
S1130A101124911D0895AA1BBB1B51E107C0AA1FF5
S1130A20BB1FA617B70710F0A61BB70B881F991F8B
S1130A305A95A9F780959095BC01CD010895F89435
S1050A40FFCFE2
S10F0A423C3F065B4F666D7D077F6F0034
S9030000FC
